:100000000C94F5080C941D090C941D090C941D0901
:100010000C941D090C941D090C941D090C941D09C8
:100020000C941D090C941D090C94E41E0C94761D6F
:100030000C941D090C941D090C941D090C941D09A8
:100040000C941D090C941D090C941D090C941D0998
:100050000C941D090C941D090C941D090C94171A7D
:100060000C941D090C941D090C941D090C941D0978
:100070000C941D090C941D090C941D090C941D0968
:100080000C941D090C941D090C941D090C941D0958
:100090000C941D090C941D090C941D090C941D0948
:1000A0000C941D090C941D090C941D0962792040C3
:1000B0006A616D657368686F77617264005072651C
:1000C0007373204120746F20737461727400000098
:1000D0000000010000000100000101010001010118
:1000E00001010202020202020202020303030303ED
:1000F00003030203030303030303020303030303D2
:1001000003030202020202020202030303030203C8
:1001100003030303030302030303030303030203B1
:1001200003030401010101010104040202020202AD
:1001300002040002020202020200000202020202A3
:100140000200040202020202020404010101010190
:10015000010400010101010101000001010101018F
:100160000100040400000404000001020202020174
:100170000101010202020201010101020202020167
:100180000101010202020201010101020202020157
:100190000101010202020201010104040000040441
:1001A0000000010400000404000004020201010137
:1001B000010100020202010101010001020202012B
:1001C0000101040101020202010104010101020214
:1001D000020100010101010202020001010101010D
:1001E00002020404000004040001010101010102F3
:1001F00002040101010102020200010101020202E6
:1002000001000101020202010104010202020101D6
:1002100001040202020101010100020201010101C7
:1002200001000202010101010104020202010101B7
:1002300001040102020201010100010102020201A6
:100240000100010101020202010401010101020297
:10025000020401010101010202000404000004047F
:100260000001040101010101020204010101010276
:100270000202000101010202020100010102020268
:100280000101040102020201010104020202010152
:100290000101000202010101010101040000040446
:1002A0000000040101010101010404020202020232
:1002B000020404020202020202040002020202021A
:1002C00002000404040404040404040202020202FE
:1002D00002040404040404040404000202020202EE
:1002E0000200000000000001010100010101000105
:1002F00001010001010100010101000101010001F2
:1003000001010001010100000000000101010001E4
:1003100001010001010100010101000101010001D1
:10032000010134544820504C41434521003352448C
:1003300020504C4143452100324E4420504C414313
:1003400045210031535420504C4143452100575220
:100350004F4E4720574159210046494E414C204CB1
:1003600041500020204C41502032202000202020ED
:10037000474F2120202000202020534554202020BA
:1003800000202052454144592020002818FFFFFF3B
:10039000FFFFFFFF00FE92926C017C82827C00FED8
:1003A0000C30FE00FE92928238FFFFFFFFFFFFFF3E
:1003B000FFFFFFFFFF43192525C501FD2020FC009D
:1003C000F82524F800FC20508C00FC24240400FCB8
:1003D0002425D903192525C511FFFFFFFFFCFDFDCD
:1003E000FDFCFCFDFCFCFDFCFDFCFCFDFCFDFCFC47
:1003F000FDFCFDFDFDFDFCFDFCFCFDFCFDFDFDFC33
:10040000FEFFFFFFFF3040FFFFFFFFFFFF7FBFDF6B
:10041000EFEFF7F7FBFBFDFDFDFDFDFDFDFDFDFD38
:10042000FDFDFBFBF7F7F7EFEFDFBFBF7FFFFFFF40
:10043000FFFFFFFFFFFFFFFFFFFF0FF3FCFFFFFFCB
:10044000FFFFFFFFFFFFFF3F3F1F1F0F0F1F1F3F5C
:100450003F7FFFFFFF7FFFFFFFFFFFFFFFFEFDF37B
:10046000EFDF3FFFFFFFFFFFCF0300010101C1FFEF
:100470000F1F7FFFFFFFFFF0C0C0C08080C0C0C063
:10048000C0E0FFFFFFFF807F7FFFFFFFFFFFFFFF59
:10049000FFFFFFFCF38F7FFFFF1EE0F8FCFEFFFF76
:1004A000C0C0E0E0E3FFFFFFFFFFFFFFFFFFFFFF34
:1004B000FFFF1FDFDFDFDFDFDFDEDDE3FFFFFFFF4B
:1004C000FFFFFFFFFFFF00FFFFE0EF0FB7B707B72A
:1004D000B707B7BB03DBDB03DBDB03D7D707AFAF64
:1004E000AF0FF0FFFFFFFFFFFFFFFFFFFFFFFFFF6B
:1004F000FFFFFFFF3FC7F8FFFFFFFFE01DFDFCFD13
:10050000FDFCFDFDFEFEFEFEFEFEFEFEFEFEFEFE10
:10051000FEFFFFFFFFFFFFFFFF7FBFDFDFEFEFF714
:10052000F7FBFDFEFFFFFFFFFFFFFFFFE0EFEFEF39
:10053000EFEFEFF7F7F7FBFBFBFBC19DBD3DBEBE49
:10054000BEBEBEBEDEEEEEEEEC13FFFFFFFFFFFF12
:10055000FFFFFFFFFFFFFFFFFFFFFFFFFFFFFFFFAB
:10056000FFFFFFFFFFFFFFFFFFFFFFFFFF708FDFBA
:10057000DFEFEFEFEFEFEFEFEFCC33FFFFFFFFFF2A
:10058000FFFFFFFFFFFFFF047CFF7C040508003036
:100590000C30000030BAFFFFFC9C38100000010353
:1005A0001F0F030000090D000010AA78A808100012
:1005B00000000000000200000010389CFCFFFFBAA1
:1005C00030000000030F1F03010000090D00100898
:1005D000A878AA100000000000020000000000102F
:1005E000389CFEFFFE9C3810000103071F07030123
:1005F00000090D001008287A2808100000000102E8
:10060000000201000000C0E07076FFFFFA78387049
:10061000E04000000018BCFFFFFF7C30000000003D
:1006200000000000070F0700000000000D1400008C
:1006300040202056FA501010204000000000001802
:100640001507153000000000000000000000000049
:10065000000000000040E0703878FAFFFF7670E09C
:10066000C000000000307CFFFFFFBC18000000004D
:1006700000000000070F0700000000000D140040FC
:1006800020101050FA5620204000000000000030DA
:100690001507151800000000000000000000000011
:1006A000000000000080C0E07070FEFFFE7070E08F
:1006B000C080000110387CFFFFFF7C381001000073
:1006C00000000000070F0700000000000D1400806C
:1006D00040202050F65020204080000000001028CC
:1006E00015071528100000000000000000000000A1
:1006F000000000000000000080C0EEFFFFFFF6E0F9
:10070000E0E0E0C0800000060F87C1E1F7FFFFFFD7
:10071000F7E180000103010000000001130FFFFF5B
:10072000FF7F8F03000000000000000000000001B8
:10073000030100000000000000111A00000000800A
:10074000404E6EE6604040404080000000000601E0
:1007500080C061253F25E18000000001000000000D
:10076000000001020100010E030000000000000073
:100770000000000000000000000000000000000079
:1007800080C0E0E0E0E0F6FFFFFFEEC08000000088
:100790000103010080E1F7FFFFFFF7E1C1870F06CA
:1007A0000000000000038F7FFFFFFF0F1301000018
:1007B0000000000000000000000103010000000034
:1007C000000000111A0000804040404060E66E4E7C
:1007D000408000000000000100000080E1253F256E
:1007E00061C080010600000000000000030E01004F
:1007F00001020100000000000000000000000000F5
:10080000000000000000000000000080C0E0E0E602
:10081000FFFFFFE6E0E0C080000002070381C0E1C7
:10082000F7FFFFFFF7E1C0810307020000000103AB
:10083000271FFFFFFF1F270301000000000000002B
:1008400000000001030100000000000000111A0078
:1008500000008040404066EE66404040800000005E
:1008600000020100804021253F2521408000010237
:100870000000000000010204010001040201000068
:100880000000000000000000000000000000000068
:1008900000000040187FFF7FFF7FFF3FDFEFDA3F60
:1008A000FF7FFF7FFF7FFF7FFF7FFF7FFF7FAA7FAD
:1008B000FF7FFF7FFF7FFF7FFE7DFB57FFFFFFFF77
:1008C000FFFFFF57FB7DFE7FFF7FFF7FFF7FAA7F3C
:1008D000FF7FFF7FFF55FF7FFF7FFF7EF940F97E9F
:1008E000FF7FFF7FFF55FF7FFF7FFF7FFF7FFF7F42
:1008F000FF7FFF7FFF55FF7FFF7FFF55FFFFFFFF5C
:10090000FFFFFF55FF55FF7FFF7FFF7FFF7FFF7FCB
:10091000FF7FFF7FFF7FFF7FFF7FFF7FAA7FFF7F3C
:10092000FF7FFF7FFF7FFF7FFF7FFF7FAA7FFF7F2C
:10093000FF7FFF7FFF7FFF7F7FBFDFF5FFFFFFFFB1
:10094000FFFFFFF5DFBF7F7FFF7FFF7FAA7FFF7F76
:10095000FF7FFF7FFF40FF43FF46FF49FF4CFF4FF4
:10096000FF52FF55FF58FF5BFF5EFF61FF64FF67AB
:10097000FF6AFF6DFF70FF73FF76FF79FF7CFF7FDB
:10098000FF82FF85FF88FF8BFF8EFF91FF94FF970B
:10099000FF9AFF9DFFA0FFA3FFA6FFA9FFACFFAF3B
:1009A000FFB2FFB5FFB8FFBBFFBEFFC1FFC4FFC76B
:1009B000FFCAFFCDFFD0FFD3FFD6FFD9FFDCFFDF9B
:1009C000FFE2FFE5FFE8FFEBFFEEFFF1FFF4FFF7CB
:1009D000FFFAFFFDFF00000300060009000C000FF6
:1009E000001200150018001B001E00210024002723
:1009F000002A002D0030003300360039003C003F53
:100A0000004200450048004B004E00510054005782
:100A1000005A005D0060006300660069006C006FB2
:100A2000007200750078007B007E008100840087E2
:100A3000008A008D0090009300960099009C009F12
:100A400000A200A500A800AB00AE00B100B400B742
:100A500000BA00BD0000000000000000000000001F
:100A60000000000000000000000000000000000086
:100A70000000000000000000000000000000000076
:100A8000008F0253022202F801D401B401990181BE
:100A9000016C0158014701380129011C01110106AF
:100AA00001FC00F200EA00E100DA00D300CC00C64D
:100AB00000C000BB00B600B100AC00A800A3009FBE
:100AC000009C009800940091008E008B00880085A7
:100AD0000083008000000006000C00120019001FB7
:100AE0000025002B00310038003E0044004A005031
:100AF0000056005C00610067006D00730078007EA6
:100B000000830088008E00930098009D00A200A73B
:100B100000AB00B000B500B900BD00C100C500C900
:100B200000CD00D100D400D800DB00DE00E100E4FD
:100B300000E700EA00EC00EE00F100F300F400F63C
:100B400000F800F900FB00FC00FD00FE00FE00FFC5
:100B500000FF00FF00FF00FF00FF00FF00FE00FE9F
:100B600000FD00FC00FB00F900F800F600F400F3C3
:100B700000F100EE00EC00EA00E700E400E100DE36
:100B800000DB00D800D400D100CD00C900C500C1F1
:100B900000BD00B900B500B000AB00A700A2009DE9
:100BA00000980093008E00880083007E0078007318
:100BB000006D00670061005C00560050004A004470
:100BC000003E00380031002B0025001F00190012E4
:100BD000000C0006000000FAFFF4FFEEFFE7FFE163
:100BE000FFDBFFD5FFCFFFC8FFC2FFBCFFB6FFB0E2
:100BF000FFAAFFA4FF9FFF99FF93FF8DFF88FF824D
:100C0000FF7DFF78FF72FF6DFF68FF63FF5EFF5996
:100C1000FF55FF50FF4BFF47FF43FF3FFF3BFF37B1
:100C2000FF33FF2FFF2CFF28FF25FF22FF1FFF1C94
:100C3000FF19FF16FF14FF12FF0FFF0DFF0CFF0A35
:100C4000FF08FF07FF05FF04FF03FF02FF02FF018C
:100C5000FF01FF01FF01FF01FF01FF01FF02FF0292
:100C6000FF03FF04FF05FF07FF08FF0AFF0CFF0D4E
:100C7000FF0FFF12FF14FF16FF19FF1CFF1FFF22BB
:100C8000FF25FF28FF2CFF2FFF33FF37FF3BFF3FE0
:100C9000FF43FF47FF4BFF50FF55FF59FF5EFF63C8
:100CA000FF68FF6DFF72FF78FF7DFF82FF88FF8D79
:100CB000FF93FF99FF9FFFA4FFAAFFB0FFB6FFBC01
:100CC000FFC2FFC8FFCFFFD5FFDBFFE1FFE7FFEE6D
:100CD000FFF4FFFAFF00004908B400BEF67B7AA5D6
:100CE0009455B848002944442A15A00B42005003EB
:100CF000020008259076BA595CC59EC53892E6F385
:100D00003A73BAE59077BA773A084008502A441CFB
:100D1000E08852E508568E77B677B8728CD6BA73EB
:100D20009E739272AEB7B6E95C64AAB7B4929CBEE9
:100D3000B6D6B656AAD79276EE77B47138E948B6E9
:100D4000AEB6AAB6F6B5B4B548E59C694C91246434
:100D50002E5400001C44000EAE9ABA0E8C2EAE0E1D
:100D6000CE56D0553B93B44144415197B4494417B2
:100D7000B61AB60AAAD6D3766717900F389A8C1689
:100D8000AE16BA16F615B4B52B1C5E6B4C4948C9A5
:100D90005A540056E2555F64690808090A0B0C0DA5
:100DA0000E0F0F6363636363630808090A0B0C0D7E
:100DB0000E0F0F1515161718180707070A0B0C0D3D
:100DC0000E101215151617181806060663636363CE
:100DD0001111121314141919190505030202636382
:100DE0001111121314141A1A1A0404030202636371
:100DF0006363636363631B1B1B040401010163637F
:100E000063222221201F1E1C1C63630000006363F9
:100E100063222221201F1E1D1D63633D3D3D636330
:100E2000632323252627281D1D63633C3C3C636305
:100E300063242425262728286363633B3B3B6363A5
:100E400063242425262729296363633A3A3A636396
:100E500063636363632A2A2A63636339393963638B
:100E600063632F2F2E2D2B2B636363383838353473
:100E70003332312F2E2D2C2C6363633737363534C4
:100E8000333231302E2D2C2C6363633737363534B3
:100E9000333231302E6363636302030303030303BE
:100EA00003030308080808080802020202020202FB
:100EB000020304020303030304020101010101010F
:100EC00002030302020202030402010408080808E4
:100ED00002020202010102030402010404040808E0
:100EE00002010101010102030402010404040808D3
:100EF00008080808080802030402010101040808A0
:100F00000803030303030303040808020104080899
:100F10000802030404040404040808020104080885
:100F2000080203030303030303080802010408087B
:100F30000802020202020304080808020104080869
:100F4000080201010102030408080802010408085C
:100F50000808080808020304080808020104080831
:100F60000808030303030304080808020104030339
:100F7000030303030404040408080802010404042E
:100F8000040404040401010408080801010101012A
:100F9000010101010108080808000000000000002C
:100FA0000000000808080808080003020202020204
:100FB000020400000000000000000100000000002A
:100FC00000010000030202040000010008080808F4
:100FD00000060202050000010000010000000808F0
:100FE00000000000000000010000060204000808E4
:100FF00008080808080800010000000001000808AF
:1010000008000000000000010008080007000808B0
:101010000800030202020205000808000100080897
:101020000800010000000000000808000100080896
:10103000080006020202040008080800010008086F
:10104000080000000000010008080800010008086E
:10105000080808080800010008080800010008083E
:101060000808000000000100080808000100000056
:101070000000000302020500080808000602020240
:10108000020202050000000008080800000000003D
:1010900000000000000808080801020408102040B1
:1010A00080F0F89C8E8783878E9CF8F00000FEFF0E
:1010B0000303030303070EFCF80000FEFF03030312
:1010C0000303070EFCF80000FFFF00000000000013
:1010D00000FFFF0000FEFF8383838383C7EE7C381D
:1010E0000000F8FC0E07030303070EFCF800003FA6
:1010F0007FE0C08080C0E07F3FFFFF010101010170
:101100000101FFFF0000FFFF0C0C0C0C1C3E77E3FD
:10111000C100007FFFC0C0C0C0C0E0703F1F000022
:101120001F3F70E0C0C0C0E0703F1F00007FFFC1E4
:10113000C1C1C1C1E3773E1C00001F3F70E0C0C0C9
:10114000C0E0703F1F000000000001FFFF01000031
:1011500000D5F08D14A1C881CFD9F1AF20001201C4
:101160000002EF0201404123368000010102030129
:1011700012010002000000404123368000010102FC
:10118000030141726475696E6F204C4C43004172DB
:101190006475696E6F204C656F6E6172646F0004D8
:1011A000030904080B000202020100090400000107
:1011B000020200000524001001052401010104249D
:1011C00002060524060001070581031000400904FA
:1011D0000100020A000000070502024000000705A6
:1011E000830240000000D4095B2011241FBECFEF12
:1011F000DAE0DEBFCDBF11E0A0E0B1E0E0E7F3E46C
:1012000002C005900D92A234B107D9F726E0A2E4FE
:10121000B1E001C01D92AC32B207E1F711E1CAEEB4
:10122000D1E104C02297FE010E947E21C63ED10773
:10123000C9F70E94211B0C94B6210C940000CF9397
:1012400068E082E491E00E94A916811102C0C0E02A
:1012500001C0C0E164E082E491E00E94A91681111E
:10126000C06260E882E491E00E94A9168111C46026
:1012700060E182E491E00E94A9168111C86060E2F9
:1012800082E491E00E94A9168111C16060E482E4C9
:1012900091E00E94A9168111C2608C2FCF91089510
:1012A000382F21E0411120E091E0611190E081E0D0
:1012B000311180E0422F692F0C941C17242F462FE8
:1012C00050E0682F70E082E491E00C946A14EF9291
:1012D0000F930E94071A0F91EF900895EF920F93CA
:1012E000FA012491319604914E5F5F4FEE24E3940E
:1012F0000E94F2140F91EF900895AF92BF92CF9297
:10130000DF92EF92FF920F931F93CF93DF936C01C5
:101310005B01EA01FA0114913196F490E12C0F2D52
:10132000212FAB01BC0182E491E00E94B914AE010F
:101330004E5F5F4FEE24E394212FB501C6010E945A
:10134000F214DF91CF911F910F91FF90EF90DF90FA
:10135000CF90BF90AF900895682F82E491E00C94F5
:10136000E3140E94811782E491E00E94AE1382E4AC
:1013700091E00E94011482E491E00E94A1166EE1C6
:1013800082E491E00E9423140C94A10F82E491E086
:101390000E942B14882339F00E94051361E082E437
:1013A00091E00C94A516089582E491E00C949513B5
:1013B000E0E4F0E0E81BF109FF27EE0FFF1FEB521E
:1013C000F54F85919491089581508A3048F4E82F23
:1013D000F0E0EE0FFF1FE95EFE4F808191810895DE
:1013E00080E090E0089580935B0188E280935A0149
:1013F00008952F923F924F925F926F927F928F92B9
:101400009F92AF92BF92CF92DF92EF92FF920F9393
:101410001F93CF93DF93CDB7DEB765970FB6F894E0
:10142000DEBF0FBECDBF80915F018330A1F18091FF
:101430006C01E82FF0E0EE0FFF1FEB52F54F4591E6
:101440005491662757FD6095762F7595679557954A
:1014500047952091640130916501241B350B309331
:1014600058012093570100916601109167010E9475
:10147000D809AA2797FDA095BA2FB595A795979556
:101480008795081B190B1093560100935501809105
:101490006C0180935901809159018195E82FF0E00A
:1014A000EE0FFF1FEB52F54F259134913A872987B4
:1014B0000E94D8099E838D8380E490915901891BF5
:1014C000E82FF0E0EE0FFF1FEB52F54F45915491DE
:1014D0005C874B870E94D80998878F838091590138
:1014E00090E0880F991F8E73992700271127081BFA
:1014F000190B43E958E060E070E0C8010E946E09F2
:10150000005C1F4F00381105A4F30EE310E0F80152
:10151000EE0FFF1FEB5AF54FC590D4902D813E8101
:10152000D6010E948221BB2797FDBA95A92F982F3B
:10153000872F3C012F813885D6010E948221BB274D
:1015400097FDBA95A92F982F872F1C0145E5E42E0A
:1015500049E0F42E512C44244394400EF701259188
:101560003491D6010E948221872E982EA92EBB2469
:10157000A7FCBA9429853A85D4010E948221BB2711
:1015800097FDBA95A92F982F872FA301480F591FB0
:101590008091550190915601480F591F2B853C852C
:1015A000D4010E948221BB2797FDBA95A92F982FBD
:1015B000872F5101A80EB91E8091570190915801B3
:1015C000A80EB91ECA01F5E095958795FA95E1F741
:1015D000A82FA7709A2E652F8B2D0E94440FB0E480
:1015E0008B9FF0011124EE51FF4F9501A5E0359539
:1015F0002795AA95E1F7277030E048E0949E200DEA
:10160000311D1124E20FF31F249154E0259F500156
:101610001124C50182539F4F5C01FC014491602F4E
:10162000852D0E945E09F5013196449191E0950D5A
:10163000602F892F9D8B0E945E09F501329644919F
:10164000642D852D0E945E09F50133964491642D29
:101650009D89892F0E945E09F4E0EF0EF11C5394DE
:10166000539420E852127ACF025011090431110527
:1016700009F04DCF80915901E82FF0E0EE0FFF1FE8
:10168000EB52F54F459154915E874D870E94D809E2
:101690009E838D8380915901805CE82FF0E0EE0FEE
:1016A000FF1FEB52F54FA591B491B88BAF870E9405
:1016B000D80998878F83E0915701F0915801FA87F4
:1016C000E98720915501309156013C872B8704E62C
:1016D000602E01E0702E812C912CAE014F5F5F4F88
:1016E0007A01D301AD90BC901197E985FA85AE1AC5
:1016F000BF0A12960D911C9113972B853C85021BF6
:10170000130B2D813E81D8010E948221272E382E75
:10171000492E552447FC5A942D853E85D5010E94BB
:101720008221BB2797FDBA95A92F982F872F280EC6
:10173000391E121413040CF09EC0442437FC40944C
:10174000542C60E070E880E090E0A20191010E94DA
:101750005D21D90123E330E00E949921BB2797FD49
:10176000BA95A92F982F872F6C013CE0C30ED11C8E
:1017700046E1C416D1040CF47EC02F853889D5010A
:101780000E948221272F382F492F552747FD5A9530
:10179000298B3A8B4B8B5C8B2F813885D8010E942B
:1017A0008221BB2797FDBA95A92F982F872F69898A
:1017B0007A89680F791FCB01AA2797FDA095BA2FC8
:1017C0006627782F892F9A2FA20191010E945D210F
:1017D000D90125E530E00E949921BB2797FDBA95F4
:1017E000A92F982F872F805C9F4FD3011E969C9323
:1017F0008E931D975096DC92CE921F97F70140E092
:101800008F010E191F09292D30E00217130764F507
:10181000411131C0A08156E15A9FD0011124AC5929
:10182000BE4F1F968D919C915097C816D906D4F43F
:1018300080E090E0A701420F531FBC01620F731FAD
:101840000617170764F45A01A80EB91EB5016150B6
:101850007109DB016C91D5016C930197EECF808209
:10186000939441E03196CCCF411105C0F701E20FCE
:10187000F31F80829394B6E16B0E711C8394E4E0B5
:101880008E122FCF9E012F5F3F4F69015901892C86
:10189000912CC6018A199B09881599050CF04DC039
:1018A000D601ED916D01B6E1EB9FF0011124EC59E9
:1018B000FE4F858596858038910558F721893185B9
:1018C00037FD0CC031110CC03485332359F030E0A2
:1018D0003595279535952795237005C023E003C0DE
:1018E00021E001C020E0678570896C31710544F00A
:1018F000663271050CF457C064337105A4F146C01B
:1019000027E835E04CE855E007C0233009F046C031
:1019100025EF36E049E357E0FA01A4913196E491CE
:101920006E1B7109EA2FF0E0F595E795E12C00E0D8
:101930008E1B9F0B0E946709ACCF80915B018823AF
:1019400009F444C00E94E40945E061E30E942C0FC1
:1019500080915A01882321F0815080935A0136C02A
:1019600010925B0133C0213029F425E536E04CE7C5
:1019700056E0D2CF233029F425E036E04CE256E0A1
:10198000CBCF25EA36E04CEC56E0C6CF213009F04B
:10199000BCCF2FE737E043EC57E0BECF29E038E07B
:1019A0004DE458E0B9CF213029F429EB35E04BEC78
:1019B00055E0B2CF233029F423E935E045EA55E07C
:1019C000ABCF2FED35E041EF55E0A6CF65960FB6D2
:1019D000F894DEBF0FBECDBFDF91CF911F910F9165
:1019E000FF90EF90DF90CF90BF90AF909F908F903F
:1019F0007F906F905F904F903F902F9008958091CF
:101A000054018F5F8093540181E00E94AC094BE840
:101A100053E06FE070E089E190E00E947D09609101
:101A200054016695617045E054E070E08EE490E00A
:101A30000E947D0948E26AE08DEB90E00E942C0F45
:101A400049E36AE08CEA90E00C942C0F2F923F92CD
:101A50004F925F926F927F928F929F92AF92BF92BE
:101A6000CF92DF92EF92FF920F931F93CF93DF936A
:101A700000D000D000D0CDB7DEB7805290E0FC019E
:101A8000EE0FFF1FEB52F34F2491FC01EE0FFF1FEF
:101A9000EA52F34FE491D0905C01EE24E394ED0C14
:101AA000922F9095222E229426942694F3E02F22B2
:101AB000322E32943694A7E03A22B2E0FB2EFD0C8F
:101AC000422E42941FE04122522E56945694569430
:101AD000622E6694669403E00D0D722E769421704A
:101AE0009E2E969414E01D0DAE2EA094BE2EB294A0
:101AF000B694B69483E0B822CE2EC294C69437E052
:101B0000C32285E08D0D8E83AE2FA295AF70AA8380
:101B1000BE2FB695B695B695BB838E2E86948694C9
:101B2000E0FFBDC041E06D2D80915D012D839C8360
:101B30000E945E0980915D0141E06D2D8F5F0E94E2
:101B40005E0980915D0141E06D2D8E5F0E945E090E
:101B500080915D0141E06D2D8D5F0E945E099C8149
:101B6000492F441F4427441F6E2D80915D010E9420
:101B70005E09DD24D394422D4D25417080915D0195
:101B80006E2D8F5F0E945E09432D4D25417080911F
:101B90005D016E2D8E5F0E945E0980915D0141E0C6
:101BA0006E2D8D5F0E945E09442D4D2541706F2D75
:101BB00080915D010E945E09452D4D254170809107
:101BC0005D016F2D8F5F0E945E09462D4D2541708E
:101BD00080915D016F2D8E5F0E945E0980915D0195
:101BE00041E06F2D8D5F0E945E09472D4D254170AC
:101BF000602F80915D010E945E092D81422F4D254D
:101C000080915D01602F8F5F0E945E09492D4D25F7
:101C1000417080915D01602F8E5F0E945E0980910E
:101C20005D0141E0602F8D5F0E945E094A2D441FD7
:101C30004427441F612F80915D010E945E094B2D56
:101C40004D25417080915D01612F8F5F0E945E097B
:101C50004C2D4D25417080915D01612F8E5F0E945A
:101C60005E0980915D0141E0612F8D5F0E945E09F8
:101C70004A814D2541706E8180915D010E945E090F
:101C80004B814D25417080915D016E818F5F0E9477
:101C90005E09482D4D25417080915D01BAC0492FE4
:101CA000441F4427441F6D2D80915D012D830E94A8
:101CB0005E0941E04225417080915D016D2D8F5F8D
:101CC0000E945E0941E04325417080915D016D2DC8
:101CD0008E5F0E945E0980915D0141E06D2D8D5FF8
:101CE0000E945E0941E0442541706E2D80915D01A6
:101CF0000E945E0941E04525417080915D016E2D95
:101D00008F5F0E945E0941E04625417080915D0130
:101D10006E2D8E5F0E945E0980915D0141E06E2D07
:101D20008D5F0E945E0941E0472541706F2D8091D3
:101D30005D010E945E092D8141E0422780915D0195
:101D40006F2D8F5F0E945E0941E0492541708091AF
:101D50005D016F2D8E5F0E945E0980915D0141E003
:101D60006F2D8D5F0E945E094A2D441F4427441F3A
:101D7000602F80915D010E945E0941E04B2541701A
:101D800080915D01602F8F5F0E945E0941E04C25CC
:101D9000417080915D01602F8E5F0E945E0980918D
:101DA0005D0141E0602F8D5F0E945E094A81E1E0A4
:101DB0004E274170612F80915D010E945E094B8129
:101DC000F1E04F27417080915D01612F8F5F0E948C
:101DD0005E0941E04825417080915D01612F8E5F71
:101DE0000E945E0980915D0141E0612F8D5F0E943C
:101DF0005E0941E06E8180915D010E945E098091E3
:101E00005D0141E06E818F5F0E945E0980915D01FE
:101E100041E06E818E5F0E945E0980915D0141E02C
:101E20006E818D5F26960FB6F894DEBF0FBECDBFD4
:101E3000DF91CF911F910F91FF90EF90DF90CF90A6
:101E4000BF90AF909F908F907F906F905F904F90DA
:101E50003F902F900C945E09CF93DF9360935D01C8
:101E600040935C01FC018491EF012196882349F0A5
:101E70000E94260D80915D018C5F80935D01FE01C3
:101E8000F2CFDF91CF910895803168F4603158F43A
:101E9000E82FF0E080E1689FE00DF11D1124E75686
:101EA000F04F8491089588E008951F93CF93DF93B6
:101EB000A4E6B1E080E090E020E030E040E050E0D7
:101EC00010E8C1E0DFEFB9017695762F66277795A8
:101ED0006795605C7C4F11967C936E9315967C930E
:101EE0006E9314971403B001159F700D1124605C5C
:101EF000784F13967C936E93129717967C936E93FC
:101F00001697FC01EC59FE4F1087C28B138AD58BB4
:101F1000118A148A1286138614861186213031059F
:101F200029F44F5F5F4F20E030E002C021E030E055
:101F3000469656968835910531F6DF91CF911F91DF
:101F400008950C94550F0E941F09982F9170919538
:101F500081FD9F5F90936D0185FB882780F98093B9
:101F6000700108959031B0F4E72FF72FFF0FFF0BAA
:101F7000703180F4FF27A4E0EE0FFF1FAA95E1F770
:101F8000E90FF11DE756F04FE49181E0E83019F0D8
:101F900080E0089581E008952F923F924F925F92E2
:101FA0006F927F928F929F92AF92BF92CF92DF9269
:101FB000EF92FF920F931F93CF93DF9300D000D047
:101FC000CDB7DEB704E611E0C12CD12CA12CB12C89
:101FD00055245A9490E4692E712C23E0222E312C42
:101FE000D80113968C9113978983880F880B8A8365
:101FF000E980FA80FF2484E0EE0CFF1C8A95E1F76B
:1020000011968C91E80EF11CF701E756F24F94906F
:10201000F601EC59FE4FFC83EB838389981609F493
:1020200051C091103DC08D3309F049C082898F5F46
:10203000828BA114B10489F4823011F484E003C0CE
:10204000833021F485E00E94F30907C0843029F42D
:10205000F3E0F0935F0110925E01AB81BC81529678
:102060008C915297843059F555968C918F3F39F564
:102070009091790120918F013091BB018091A50150
:1020800083170CF4832F87FD8FEF82170CF4822FB8
:1020900089170CF4892F8F5FEB81FC81858B0FC032
:1020A00081110DC0FDE39F120AC0AB81BC81529625
:1020B0008C915297882319F0815052968C93EB8122
:1020C000FC81938AAB81BC8118964C90A114B10419
:1020D00029F480915F01833009F070C0442D242DD4
:1020E00030E0F901EE0FFF1FEB52F54F8590949011
:1020F000F301E21BF30BFF27EE0FFF1FEB52F54F2F
:1021000085919491B1010E942721F80182819381E8
:10211000680F791FE72FFF2764E0EE0FFF1F6A9516
:10212000E1F7C401B1010E942721D8018D919C9152
:10213000680F791F672F7727E60FF71FE756F14FD4
:10214000E491E23059F020F4E13059F440E809C05C
:10215000E33031F0E43029F440EC03C040E401C046
:1021600040E050E0421B530B4138510514F05A95A2
:1021700006C04038BFEF5B0714F4539509C04B3FCE
:10218000EFEF5E072CF4AB81BC8119965C920CC01A
:10219000463051052CF021E0EB81FC81218704C001
:1021A000AB81BC8119961C92415D5F4F81E04F3538
:1021B000510508F080E0EB81FC818487AB81BC8114
:1021C00019969C9119971A968C911A97911107C09C
:1021D000181614F481500AC0882389F00CC097FFA8
:1021E00008C08E3F64F08150AB81BC811A968C93FD
:1021F00006C0833024F48F5FEB81FC818287F70176
:10220000E756F04F8081AB81BC811A962C911A97CA
:10221000240D18962C931897882351F091110BC018
:102220005496EC91F0E0EB56F24FE491F0E005C0EB
:10223000EDE2F0E002C0ECE3F0E0AB81BC811C9683
:102240008C911C971B963C911816F4F4832F9927B8
:1022500087FD9095532F559555955595559509F4AE
:1022600051E0AB81BC8151964C915197450F5196ED
:102270004C9351978E179F0714F43F5F0AC031505B
:10228000EB81FC81338707C013162CF43150AB81EE
:10229000BC811B963C93F801408151815583448356
:1022A000828193819783868330E0F901EE0FFF1FCF
:1022B000EB52F54F65917491EB81FC81A385EA2E79
:1022C000FF24E7FCF0946E9DF0016F9DF00D7E9D64
:1022D000F00D1124EF2FFF0FFF0BE595E595E40FAF
:1022E000F51FD801ED93FC93F301E21BF30BFF27DD
:1022F000EE0FFF1FEB52F54F259134912E9DA0015B
:102300002F9D500D3E9D500D1124452F550F550BFF
:1023100045954595480F591FF80153834283FFEFB8
:10232000AF1ABF0A26E1C20ED11C0A5E1F4F88E514
:10233000C816D10409F054CEE4E6F1E040E050E0E4
:102340004F5F5F4FDF01BA01643071050CF06AC066
:10235000C080D1805696ED90FC90579702811381F2
:102360005896AD90BC90599796012E193F0937FFAA
:1023700003C0319521953109203131050CF04EC053
:10238000C8018A199B0997FF03C09195819591090E
:10239000803191050CF042C08217930704F5C60105
:1023A0008E0D9F1D95958795048115815A96ED9008
:1023B000FC905B979C012051310940960E151F053A
:1023C0003CF43183208357969C938E93569726C076
:1023D0009183808357963C932E9356971FC0C801D4
:1023E0008A0D9B1D95958795068117815C96ED90CA
:1023F000FC905D979C012051310940960E151F05F8
:102400003CF43383228359969C938E93589706C04D
:102410009383828359963C932E9358976F5F7F4F97
:10242000569692CF76964430510509F089CF04E64E
:1024300011E0D8018D919C91119714962D913C91AA
:10244000159712966D917C911397821793077CF4E0
:1024500040970E94B20F8823D9F0F80180819181C2
:1024600040978827805F9E4F9183808311C02817F3
:10247000390774F440960E94B20F882349F0D801BE
:102480008D919C9111974096882740978D939C93AE
:10249000F80162817381868197816817790794F4C6
:1024A00060517109808191810E94B20F882311F1DE
:1024B000D80112968D919C91139740978827805F41
:1024C0009E4F14C086179707ACF4605F7F4FF801EA
:1024D000808191810E94B20F882361F0D801129609
:1024E0008D919C91139740968827409713969C93C3
:1024F0008E9312970A5E1F4FB1E00C3B1B0709F049
:1025000098CFB7E7EB2EB1E0FB2E80E090E016E12C
:10251000A0E6B1E040E050E020E0B7016150710971
:10252000481759073CF521112BC03C91139F6001BE
:102530001124F601EC59FE4F6F01FB010081F601F9
:102540003289031798F0F7010081F60133893017BB
:1025500068F49C0121503109F901E05AFE4F0081D5
:10256000018324173507B1F78C9321E04F5F5F4F4C
:102570001196D6CF211104C0DC01A05ABE4F8C9316
:102580000196F6E1EF0EF11C8430910509F6A09159
:10259000600186E18A9FD0011124AC59BE4F549648
:1025A0001C92A09161018A9FD0011124AC59BE4FA9
:1025B00091E054969C93A09162018A9FD0011124CE
:1025C000AC59BE4F92E054969C93E09163018E9F6C
:1025D000F0011124EC59FE4F83E0848B0F900F9093
:1025E0000F900F90DF91CF911F910F91FF90EF907F
:1025F000DF90CF90BF90AF909F908F907F906F9023
:102600005F904F903F902F90089580915E018F5F73
:1026100080935E0190915F019130B1F030F0923083
:10262000A9F1933009F43EC05CC00E94FF0C0E94E7
:102630001F09807309F457C00E94550F10925E0164
:1026400081E080935F01089540E0843128F460E0E8
:1026500080E00E94500945C0883230F460E081E09B
:102660000E94500981E00FC061E08C3328F481E0C2
:102670000E94500982E007C080E00E94500982E079
:1026800080935F0183E00E94F3092BC0813528F01D
:1026900040E060E080E00E9450090E94A30F0E9489
:1026A000CC0F1FC00E94CC0F80917901813059F06E
:1026B00024F481110DC087E009C0823031F08330ED
:1026C00039F48AE003C088E001C089E00E94F30980
:1026D00080915E018F5F80935E01893C10F01092C3
:1026E0005F010C94F90908950895EF92FF920F93FA
:1026F0001F93CF93DF931F92CDB7DEB77C01FC0110
:1027000000811181C80169830E94A0216981681735
:1027100019F0C8010E94A821C7010F90DF91CF9145
:102720001F910F91FF90EF900895CF93DF93EC01ED
:102730000E94BB168FE291E0998388831D821E82DE
:1027400080E18F838FEF9FEF9C838B831C861D8698
:102750001E861F86188ADF91CF9108950E94441724
:102760008078803881F485EA0E940C1740E060E0B0
:1027700080E00E941C178091640080628093640056
:102780000E94E116FDCF0895EF92FF920F931F93E1
:10279000CF93DF9300D0CDB7DEB7F62E042FE22E15
:1027A0000E944417182F1F211F1122C061E089E0E9
:1027B0000E942C1788EC90E00E945F1760E0802F49
:1027C0000E942C17E2E0F0E0FA83E9836E2DCE013F
:1027D00001960E94751384EF91E00E945F1761E0FB
:1027E000802F0E942C170E94441781238117D9F350
:1027F0000F900F90DF91CF911F910F91FF90EF906D
:102800000895CF93DF93EC010E94441782FF15C017
:1028100060E089E00E942C172FEF4BE064E8CE01C6
:102820000E94C41320E04AE064E1CE010E94C41378
:1028300088EC90E00E945F17E7CF61E089E0DF91CC
:10284000CF910C942C17FC0170E088EE93E00E946D
:10285000272167830895FF920F931F93CF93DF93F0
:10286000EC010E94611A0C851D852E853F85F88834
:10287000FF2031F02885621B698B188AF12C23C058
:10288000601771078207930730F4061B0230D8F0F7
:102890000E94E11618C021E0288B688779878A8713
:1028A0009B872F81DC01CB01820F911DA11DB11DE2
:1028B0008C879D87AE87BF878B819C8101969C8387
:1028C0008B83FF24F3948F2DDF91CF911F910F9174
:1028D000FF90089560387105D8F440345105C0F474
:1028E000E9E9F0E180E1849FD001A0781124A60FEE
:1028F0004770E40FF11D6491A454BE4F222321F0D0
:102900009C91962B9C93089560958C9168236C9371
:102910000895AF92BF92CF92DF92EF92FF920F9302
:10292000CF93DF936C015B017A01E20EF11CEA01A7
:1029300057FF0DC0C0E0D0E00AC0C417D5077CF433
:10294000202FAE01B501C6010E946A142196A7018D
:1029500081E4E816F1048CF340E450E0EECFDF911F
:10296000CF910F91FF90EF90DF90CF90BF90AF90FD
:1029700008958F929F92AF92BF92CF92DF92EF9283
:102980000F931F93CF93DF936C015A01102FEB012C
:102990004B01820E911CC815D9054CF40E2D212F28
:1029A000A501BE01C6010E9489142196F4CFDF91D2
:1029B000CF911F910F91EF90DF90CF90BF90AF908C
:1029C0009F908F900895ECEBF1E061116FEF002480
:1029D00061936193619361930394D1F7089560E0EB
:1029E0000C94E3142F923F924F925F926F927F92DA
:1029F0008F929F92AF92BF92CF92DF92EF92FF920F
:102A00000F931F93CF93DF9300D000D01F92CDB7C9
:102A1000DEB7E982222E312C9C01220D331D37FDB9
:102A200001C1803891050CF0FDC09B01200F311DC4
:102A300037FDF8C0603471050CF0F4C09B0177FFDE
:102A400004C022273327261B370B27703327FB01AF
:102A500077FD3796DF01E3E0B595A795EA95E1F7B5
:102A6000BB83AA8377FF09C01197BB83AA8368E061
:102A700070E0FB01E21BF30B9F01602F66956695EA
:102A80006695E62EF12C077019F0FFEFEF1AFF0A9A
:102A90004A014A815B815695542F442757954795A3
:102AA00044545E4F5D834C836A817B8118E0612EC4
:102AB000712C621A730AAB01AA81BB814A1B5B0BA2
:102AC0004E155F050CF0AEC06830710509F4AAC060
:102AD0006F3F5FEF75070CF495C0AC0100E010E0AC
:102AE000AC81BD81A058BF4F2D01021513050CF01C
:102AF00089C04038510509F485C057FD7EC06F3F3D
:102B0000BFEF7B0709F489C0D801A80DB91DCC809F
:102B1000DD80C40ED51EE981E13061F4FD01A49190
:102B2000022E01C0AA0F0A94EAF7F601B080AB2981
:102B3000A08321C0F981F11112C0FD01A491EA2FF7
:102B4000F0E0022E02C0EE0FFF1F0A94E2F7E095BC
:102B5000F095D601AC90B12CEA21FB210BC0FD0110
:102B6000A491EA2F022E01C0EE0F0A94EAF7D601D3
:102B7000BC90EB25EC932115310509F43EC067307C
:102B8000710509F43AC0F801E80DF91DB981B130B9
:102B900079F4E491F0E0062C02C0F595E7950A94EB
:102BA000E2F76201C40ED51ED601BC90EB2924C009
:102BB000B981B11113C0E491F0E0062C02C0F59583
:102BC000E7950A94E2F7E095F0956201C40ED51EF0
:102BD000D601AC90B12CEA21FB210EC0E491F0E0CB
:102BE000062C02C0F595E7950A94E2F76201C40E3F
:102BF000D51ED601BC90EB25EC930F5F1F4F4F5FA6
:102C00005F4F73CF6F5F7F4F820C931C4C815D8150
:102C100040585F4F5D834C834ECF2115310509F03D
:102C2000B2CFEBCF0F900F900F900F900F90DF91DE
:102C3000CF911F910F91FF90EF90DF90CF90BF90B9
:102C4000AF909F908F907F906F905F904F903F904C
:102C50002F900895EF920F93EE24E39400E128E57E
:102C600041EA50E1BC0184E190E00E94F2140F912E
:102C7000EF90089560E08CEB91E00C94F316EF92E6
:102C8000FF920F931F93CF93DF938C017B0160E042
:102C90008AE00E942C17CEEEDFEF0E94441786FFD9
:102CA0000BC041E061E081E0DF91CF911F910F9176
:102CB000FF90EF900C941C17CC3F8FEFD80739F49E
:102CC00061E08AE00E942C1760E08BE009C0C83107
:102CD000D10541F461E08BE00E942C1760E089E0AF
:102CE0000E942C17C8010E94EF14CE01F70109952C
:102CF000C8010E943A168BE190E00E945F17C03F26
:102D0000FFEFDF0721F48AEF90E00E945F17219622
:102D1000C931D10511F68CEB92E00E945F1761E09A
:102D200089E00E942C17D801ED91FC910190F0816F
:102D3000E02DC801DF91CF911F910F91FF90EF908F
:102D400009946AE276E10C943F168CEB91E00C94C6
:102D5000F316CF93DF931F92CDB7DEB769830E943E
:102D600044176981982F962381E0961380E00F9095
:102D7000DF91CF910895089585B1806F85B924982A
:102D800084B1866E84B95E9A5F988AB1806D8AB983
:102D9000769A6E9881B3806F81BB899880B38D706D
:102DA00080BB08955C9A08955C98089580E58CBD79
:102DB00081E08DBD08958EBD00000DB407FEFDCFEE
:102DC000089583B7817F83BF83B7816083BF889570
:102DD00083B78E7F83BF089581E88093640081E08C
:102DE000809365000895FC0180818EBD6111108281
:102DF000319682E090E02081611110820DB407FECF
:102E0000FDCF2EBD01963196813024E0920799F7CF
:102E10000DB407FEFDCF0895CF93DF931F92CDB77A
:102E2000DEB789830E94D41689810E94DB160F9039
:102E3000DF91CF910C94D216882311F02E9A01C005
:102E40002E98662311F02F9A01C02F98442311F079
:102E50002D9A08952D9808958A3031F4662311F043
:102E60002E9A08952E9808958B3031F4662311F030
:102E70002F9A08952F980895893029F4662311F028
:102E80002D9A08952D9808958FB14CB123B150E03B
:102E9000409550954074552733E0559547953A95A0
:102EA000E1F730E02095309520713327359527954F
:102EB00035952795242B8095807F822B0895BC0122
:102EC00080E090E00C94901ACF93DF9385E090E03F
:102ED0000E945F175F9A85E090E00E945F175E98FE
:102EE0000E94D416C1E5D1E1FE0184910E94DB1657
:102EF0002196F1E1CE35DF07B9F7DF91CF910C9440
:102F0000D21681EC80937C000E94BC160E94D616DB
:102F10000E9464170C94EC162F923F924F925F928E
:102F20006F927F928F929F92AF92BF92CF92DF92D9
:102F3000EF92FF920F931F93CF93DF9300D000D0B7
:102F4000CDB7DEB72901AC2DA02EB12CFC01EA0DC6
:102F5000FB1D1E161F060CF0E4C1803891050CF015
:102F6000E0C16B01CE0CD11C1C141D040CF0D9C1A6
:102F7000603471050CF0D5C14115510509F4D1C17A
:102F80006B0177FF04C0CC24DD24C61AD70A1C2DA0
:102F90001770912E6B0177FF03C027E0C20ED11C82
:102FA00023E0D594C7942A95E1F7BC2D77FF07C09D
:102FB000992029F0BFEFBC0D68E06919962E97FFA4
:102FC00005C066277727681B790B02C060E070E0B8
:102FD000E038F10524F010E8712E781A01C0702E47
:102FE000761A2B2F332727FD3095BF3F1CF4C22EB6
:102FF000C09401C0C12CFF24F394EE2DE77009F4B6
:10300000F12CE694E694E694EF0CF901EE0DF11D37
:1030100039971CF0F8E0EF2EEB1AEC188C2C8B0E85
:10302000182D20E81203800D911D1124860F971F83
:10303000FB01C09EE00DF11D11248F014E0F5F1F9B
:1030400061E070E0092C02C0660F771F0A94E2F776
:10305000A33009F423C1B8F4A13009F4CAC0A230E6
:1030600009F05FC12FEF269FD001279FB00D1124DB
:10307000A095B095BC83AB83FC80E80C072D10E0D5
:10308000A01AB10A35C0AA3F49F0AB3F09F049C1C7
:10309000E80CA72DB0E0AA1ABB0A97C0E80CA72D30
:1030A000B0E06501CA1ADB0A59C0F201E20FF31F52
:1030B000E491E69F6001E79FD00C1124DA82C98277
:1030C00087FC07C0F901E454FE4FD080DA22DC28E7
:1030D000D082911015C02F5F3F4FE22FE81BE715FC
:1030E00020F3400F511F83944A0D5B1D80589F4F62
:1030F0008E1409F416C19C012A01481A590AEDCF11
:10310000F6E0F81544F3F901E45CFD4FD080DF20D0
:10311000CA80DC28D082DFCFF501E20FF31FE491F3
:10312000E69F8001E79F100D11241A83098387FC15
:1031300006C0F901E454FE4F1081102B108391104A
:1031400015C02F5F3F4FE22FE81BE71528F34A0F0A
:103150005B1F83944C0D5D1D80589F4F8E1409F4A6
:10316000E0C09C015A01A81AB90AEDCFE6E0FE2E94
:10317000F8143CF3F901E45CFD4F10810A81102B37
:103180001083DFCFF801E20FF31FE491E69F6001A7
:10319000E79FD00C1124DA82C98287FC07C0C09453
:1031A000F901E454FE4FF080FC20F082911015C02C
:1031B0002F5F3F4FE22FE81BE71520F34A0F5B1FFD
:1031C00083944A0D5B1D80589F4F8E1409F4A9C04B
:1031D0009C018A01081B190BEDCFE6E0E81544F3CA
:1031E000DA80D094F901E45CFD4FF080FD20F0829C
:1031F000DFCF92012E0F3F1F682C6E0CE72CF12CB5
:103200006501CE18DF08861409F48BC0DC012901A2
:10321000481A590A1A01281A390AEA2FE81BE71531
:1032200088F5F201EA0FFB1FE491E69F8001E79F1A
:10323000100D1124009510951C830B83F101EA0FEA
:10324000FB1FE491E69F5001E79FB00C1124BA8266
:10325000A98287FC07C0FD01E454FE4F10811023B2
:103260001A291083992061F0F6E0F8154CF0FD0161
:10327000E45CFD4F10810C8110230A81102B108318
:103280001196CBCF4E0D5F1D2E0D3F1D83944C0D1F
:103290005D1D2C0D3D1D80589F4FB5CFE72DF0E0F3
:1032A000040F151FDC01A454BE4FAC01445C5D4FFC
:1032B00020E830E02E1B3F0BAE1ABF0AAA0CBB1C45
:1032C000982D872CFE2CF801CF93DF93EA01C5904F
:1032D0004590992059F0C69E6001469E2001973086
:1032E0002CF47881509475217D29799399233AF0B3
:1032F0007C91409474217C297D930C9480191196C3
:103300007A9429F7EA9451F0782C93951124EA0DD8
:10331000F11DA20FB11DC20FD11DD9CFDF91CF91E9
:1033200011240F900F900F900F90DF91CF911F916C
:103330000F91FF90EF90DF90CF90BF90AF909F9054
:103340008F907F906F905F904F903F902F90089557
:10335000AF92BF92CF92DF92EF92FF920F931F93A3
:10336000CF93DF93F22E9801DE2C1C2D41155105D1
:1033700009F442C0FA0104913196E4904E5F5F4F28
:10338000F11002C0DD2069F1A02EB12CCE2DC69522
:10339000C695C695D0E0A1E0B0E0EE2DE77011F43F
:1033A000A0E0B0E0CA0FDB1FAC9ED001AD9EB00D17
:1033B000BC9EB00D1124133019F4AA0FBB1F0AC014
:1033C0002115310539F0DA9EE001DB9ED00D112484
:1033D0002C0F3D1FFA9EE001FB9ED00D11244C0FD7
:1033E0005D1F1F3F31F42115310511F412E001C0BA
:1033F00011E0C12E0E948C17DF91CF911F910F9188
:10340000FF90EF90DF90CF90BF90AF900895CF9254
:10341000EF920F931F93E02FCC24C39489012E2F9A
:103420000E94A8191F910F91EF90CF9008951F92BD
:103430000F920FB60F9211242F933F938F939F9368
:10344000AF93BF938091BD059091BE05A091BF053C
:10345000B091C0053091BC0523E0230F2D3720F437
:103460000196A11DB11D05C026E8230F0296A11DDE
:10347000B11D2093BC058093BD059093BE05A0931C
:10348000BF05B093C0058091C1059091C205A09180
:10349000C305B091C4050196A11DB11D8093C1055E
:1034A0009093C205A093C305B093C405BF91AF919B
:1034B0009F918F913F912F910F900FBE0F901F9072
:1034C00018952FB7F8946091BD057091BE05809155
:1034D000BF059091C0052FBF08953FB7F894809124
:1034E000C1059091C205A091C305B091C40526B550
:1034F000A89B05C02F3F19F00196A11DB11D3FBF2C
:103500006627782F892F9A2F620F711D811D911DBB
:1035100042E0660F771F881F991F4A95D1F70895DB
:103520008F929F92AF92BF92CF92DF92EF92FF92D3
:103530006B017C010E946D1A4B015C01C114D10426
:10354000E104F104F1F00E94341B0E946D1A681925
:1035500079098A099B09683E73408105910570F3DA
:1035600021E0C21AD108E108F10888EE880E83E054
:10357000981EA11CB11CC114D104E104F10429F767
:10358000DDCFFF90EF90DF90CF90BF90AF909F90F6
:103590008F900895789484B5826084BD84B58160ED
:1035A00084BD85B5826085BD85B5816085BDEEE64B
:1035B000F0E0808181608083E1E8F0E0108280812A
:1035C00082608083808181608083E0E8F0E0808198
:1035D00081608083E1E9F0E0808182608083808186
:1035E00081608083E0E9F0E0808181608083E1ECAC
:1035F000F0E080818460808380818260808380812C
:1036000081608083E3ECF0E0808181608083E0EC86
:10361000F0E0808182608083E2ECF0E08081816074
:103620008083EAE7F0E0808184608083808182602B
:103630008083808181608083808180688083089519
:1036400008950E94CA1A0E94201B85EC95E00E94F2
:10365000671F0E94B109C0E0D0E00E94C609209710
:10366000E1F30E940000F9CF0895615030F02091FD
:10367000F100FC0120830196F8CF289884E680931E
:10368000CE0508954091C9055091CA052091C705FE
:103690003091C80542175307B4F49091E800957033
:1036A000E1F39091E80092FD19C08093F1008091C0
:1036B000C9059091CA0501968F739927892B19F432
:1036C0008EEF8093E8008091C9059091CA0501961C
:1036D0009093CA058093C90581E0089580E008951C
:1036E000CF92DF92EF92FF920F931F93CF93DF93CE
:1036F0001F92CDB7DEB7082F162FF42E862F880F16
:103700008E5F99830E94421B83E00E94421BE02E41
:10371000C02E9981D92E8C2D8E19811798F4F6011F
:10372000F7FE02C0849101C080810E94421B082FD5
:1037300080E00E94421B8023FFEFCF1ADF0A811135
:10374000EACF01C081E00F90DF91CF911F910F91DF
:10375000FF90EF90DF90CF9008958091D700816027
:103760008093D70080EA8093D80089B5806189BDB5
:1037700089B5826089BD09B400FEFDCF61E070E0CB
:1037800080E090E00E94901A8091D8008F7C806148
:103790008093D8008091E000807F8093E0000895BE
:1037A000CF93DF931F92CDB7DEB71982CE0101967A
:1037B0000E94D71F0E94FF20BE016F5F7F4F0E94B3
:1037C000782089810F90DF91CF9108952FB7FC0168
:1037D0002083F89467706093E9000895CF93DF9396
:1037E0001F92CDB7DEB7682FCE0101960E94E61B6F
:1037F0008091F20099819FBF0F90DF91CF91089542
:10380000FF920F931F93CF93DF9300D0CDB7DEB716
:10381000F62E8A019091CD05992311F057FF03C030
:103820008FEF9FEF2BC0682FCE0101967A830E9405
:10383000E61B8091F20090E0A8017A818017910741
:103840000CF4AC01EF2DF72FF40E84E6FE1639F0E0
:1038500028988093CE059091F1009193F7CF411570
:10386000510521F08091F200882321F089818FBFDA
:10387000CA0104C08BE68093E800F8CF0F900F9048
:10388000DF91CF911F910F91FF900895CF93DF9318
:103890001F92CDB7DEB741E050E0BE016F5F7F4FB2
:1038A0000E94001C019719F4898190E002C08FEFFB
:1038B0009FEF0F90DF91CF910895CF93DF931F92E9
:1038C000CDB7DEB7682FCE0101960E94E61B90911E
:1038D000E800892F807295FF04C09091F20080E487
:1038E000891B99819FBF0F90DF91CF9108956F92AF
:1038F0007F928F929F92AF92BF92CF92DF92EF9280
:10390000FF920F931F93CF93DF931F92CDB7DEB734
:10391000782E7B01C42EB52E8091CD05882369F0C9
:10392000042F152F8AEFD82E872D8072982E9AE3B8
:10393000A92E872D8074882E11C08FEF9FEF57C05E
:10394000872D0E945D1C682E81110CC0DA94A9F3AA
:1039500061E070E080E090E00E94901A011511058E
:1039600079F73BC0282F30E0021713070CF4602EC4
:10397000672DCE0101960E94E61B8091E80085FF2D
:1039800029C0262D30E0021B130B992039F06A94D0
:103990008FEF6816B1F01092F100F9CFF701862D84
:1039A00077FE07C0815058F094919093F1003196C2
:1039B000F9CF815020F091919093F100FACFE20E6F
:1039C000F31E8091E80085FF0FC00115110511F469
:1039D00081100AC089818FBFC1CF5D9884E6809332
:1039E000CF058C2D9B2D03C0A092E800F3CF0F9044
:1039F000DF91CF911F910F91FF90EF90DF90CF90CB
:103A0000BF90AF909F908F907F906F90089510928D
:103A1000E9001092CA051092C9059093C8058093D9
:103A2000C7050895CF92DF92FF920F931F93CF9314
:103A3000DF9300D0CDB7DEB7F82E8A016B010115F8
:103A40001105B1F0F601F7FE02C0849101C080813A
:103A500049835A830E94421B01501109FFEFCF1A7C
:103A6000DF0A49815A818111EACF8FEF9FEF01C0B0
:103A7000CA010F900F90DF91CF911F910F91FF908E
:103A8000DF90CF900895BF92CF92DF92EF92FF9296
:103A90000F931F93CF93DF936C018B01EB013BEFEF
:103AA000B32E2097C1F07E01C134D1051CF020E473
:103AB000E22EF12C8091E80082FFFCCFC8018C1B24
:103AC0009D0B6E2D8C0D9D1D0E94351BB092E80044
:103AD000CE19DF09E6CFC801DF91CF911F910F9179
:103AE000FF90EF90DF90CF90BF9008951F920F92BC
:103AF0000FB60F921124DF92EF92FF920F931F9354
:103B00002F933F934F935F936F937F938F939F93E5
:103B1000AF93BF93EF93FF93CF93DF93CDB7DEB710
:103B20006C97DEBFCDBF1092E9008091E80083FF63
:103B300023C168E0CE0145960E94351B82EF809339
:103B4000E8003D8937FF05C08091E80080FFFCCF89
:103B500003C08EEF8093E800832F807609F0F0C0D9
:103B60002E894F89D88C21110CC0303829F48091CE
:103B7000CC058093F10002C01092F1001092F10088
:103B8000F4C0842F90E09D29213049F43111EDC01B
:103B9000019709F0EAC08091CC058D7F0AC02330DF
:103BA00059F43111E2C0019709F0DFC08091CC05D2
:103BB00082608093CC05D9C0253041F48091E80023
:103BC00080FFFCCF40684093E300CFC0263009F06F
:103BD0008DC0EB8CFC8C22E0D2122CC080E090E0F7
:103BE0000E94071D0E94D01B99E08E010F5F1F4F9E
:103BF000F801292F11922A95E9F79983DA8291E049
:103C00009E8390EA98879AEF99872091C905309111
:103C1000CA05275F3F4F3C832B838D83C7010E94DA
:103C2000071D49E050E0B80180E00E94121D0E948B
:103C3000D01B9BC0C7010E94071D0E94FF20BE0130
:103C40006B5E7F4F0E94A120009719F00CF08DC091
:103C500090C081E0D8120EC08B8D9C8D089719F40E
:103C600081E08093C6058091C60581112FC060E771
:103C700071E131C0E3E0DE127CC08F89882349F115
:103C8000823029F440E860E18EE891E11CC0813087
:103C900029F440E86BE082E891E115C0833009F037
:103CA00068C00E94FF208E010F5F1F4FB8010E9465
:103CB000C020F80101900020E9F73197E01BF10BDB
:103CC00040E06E2FC8010E94701B4DC06EE571E18F
:103CD00002C06FE971E16115710509F44AC0FB0189
:103CE000449150E080E80E94121D3FC0273009F443
:103CF00040C0283021F481E08093F10036C02930A3
:103D0000A1F53370B1F5E5E0F1E081E021E036E3C3
:103D10009081992361F08093E9002093EB009191C9
:103D20009093EC003093ED008F5F873089F78EE73A
:103D30008093EA001092EA008F898093CD0515C028
:103D40008B8D9C8D0E94071D898D811105C0CE0130
:103D500045960E94E21F07C00E94FF20BE016B5ED5
:103D60007F4F0E94DF20882321F08EEF8093E800B0
:103D700003C081E28093EB006C960FB6F894DEBF2F
:103D80000FBECDBFDF91CF91FF91EF91BF91AF916A
:103D90009F918F917F916F915F914F913F912F9163
:103DA0001F910F91FF90EF90DF900F900FBE0F903B
:103DB0001F9018958093E9008091F200882319F0F4
:103DC0008AE38093E80008951F920F920FB60F9236
:103DD00011242F933F934F935F936F937F938F9310
:103DE0009F93AF93BF93CF93EF93FF93C091E10065
:103DF0008091E100837F8093E1008093E100C3FF25
:103E00000FC01092E90081E08093EB001092EC006B
:103E100082E38093ED001092CD0588E08093F0005E
:103E2000C2FF19C083E00E94DA1E8091CF0588236B
:103E300039F08091CF0581508093CF05882389F197
:103E40008091CE05882339F08091CE0581508093F2
:103E5000CE05882341F1C4FF10C08091E2008E7E20
:103E600081608093E2008091E1008F7E8093E10089
:103E70008091CB058E7E806111C0C0FF16C08091FD
:103E8000E2008E7E80618093E2008091E1008E7E70
:103E90008093E1008091CB058E7E81608093CB057D
:103EA00004C05D9ACDCF289AD6CFFF91EF91CF91E4
:103EB000BF91AF919F918F917F916F915F914F9142
:103EC0003F912F910F900FBE0F901F901895109259
:103ED000CD051092CC051092CB050E94AD1BE1EEF2
:103EE000F0E080818E7E80838DE08093E200559AA1
:103EF000209A0895CF93DF931F92CDB7DEB76983E1
:103F0000DC01ED91FC910280F381E02D41E050E075
:103F1000BE016F5F7F4F09950F90DF91CF9108959C
:103F2000CF93DF93EC018C859D8597FF05C082E0E0
:103F30000E94461C9D878C878C859D85DF91CF9143
:103F4000089583E00C94DA1EFC018485958597FD25
:103F500006C082E00E94EE1B90E00196089582E088
:103F60000E94EE1B90E00895FC018485958597FDE5
:103F700005C02FEF3FEF35872487089582E00C942A
:103F8000461CCF93DF93EC0180911601882331F01A
:103F900083E00E94771C1816190634F081E090E047
:103FA0009B838A8380E090E0DF91CF910895FC01AC
:103FB00020812E5F208342E450E063EA71E180E8D3
:103FC0000C94121DFC0121818081813A59F4213227
:103FD00009F05CC047E050E06FE071E080E00E94D3
:103FE000121D67C0813209F051C0233289F48381E8
:103FF00090E0982F88273281832BA0E0B0E0809357
:104000000B0190930C01A0930D01B0930E010FC012
:10401000203239F467E070E08FE091E00E94431DA8
:104020000AC0223221F482818093160104C02D7FC0
:10403000203209F03EC080910F0190911001A091B3
:104040001101B0911201803B9440A105B10501F529
:104050008091160180FD1CC080910008909101089C
:104060009093FF0A8093FE0A87E797E790930108F1
:10407000809300082BE088E190E00FB6F894A895B3
:10408000809360000FBE2093600013C080E008950D
:1040900088E10FB6F89480936000109260000FBE24
:1040A000A8958091FE0A9091FF0A90930108809351
:1040B000000881E008951092D3051092D20588EE91
:1040C00093E0A0E0B0E08093D4059093D505A09351
:1040D000D605B093D70585E391E09093D105809301
:1040E000D0058FEF9FEF9093DD058093DC05089559
:1040F000EF92FF920F931F93CF93DF937B01FC010D
:10410000C281D38100E010E0209781F0E881F9813D
:104110000280F381E02DB701CE01099597FD08C01B
:10412000080F191F0884D985C02DEECFC80102C021
:104130008FEF9FEFDF91CF911F910F91FF90EF9045
:1041400008950F931F93CF93DF938B01FC01C281DE
:10415000D381209771F0E881F9810480F581E02D09
:10416000B801CE010995009731F40884D985C02D96
:10417000F0CF80E090E0DF91CF911F910F910895F3
:104180000F931F93CF93DF938B01FC01C281D381E7
:10419000209771F0E881F9810680F781E02DB80160
:1041A000CE010995080F111D0884D985C02DF0CFC7
:1041B000F8011082DF91CF911F910F9108950F9315
:1041C0001F93CF93DF938B01FC01C281D381209792
:1041D00071F0E881F9810190F081E02DB801CE0104
:1041E0000995811106C00884D985C02DF0CF80E0E3
:1041F00001C081E0DF91CF911F910F9108958091CF
:10420000240681110DC082E08093200684E0809313
:104210002106109223061092220681E08093240644
:1042200080E296E00895AA1BBB1B51E107C0AA1FBC
:10423000BB1FA617B70710F0A61BB70B881F991F47
:104240005A95A9F780959095BC01CD01089597FBEB
:10425000072E16F4009407D077FD09D00E94132191
:1042600007FC05D03EF4909581959F4F0895709579
:1042700061957F4F0895A1E21A2EAA1BBB1BFD0179
:104280000DC0AA1FBB1FEE1FFF1FA217B307E40735
:10429000F50720F0A21BB30BE40BF50B661F771F8D
:1042A000881F991F1A9469F760957095809590956D
:1042B0009B01AC01BD01CF010895052E97FB1EF4B3
:1042C00000940E94742157FD07D00E943B2107FCF7
:1042D00003D04EF40C94742150954095309521955F
:1042E0003F4F4F4F5F4F0895909580957095619522
:1042F0007F4F8F4F9F4F0895EE0FFF1F0590F49152
:10430000E02D09940E948A21332312F48A1B9B0B0F
:104310000C949B21A29FB001B39FC001A39F700D7D
:10432000811D1124911DB29F700D811D1124911DBD
:1043300008950E948A21B7FF0895821B930B089568
:10434000F999FECF92BD81BDF89A992780B508955D
:10435000262FF999FECF1FBA92BD81BD20BD0FB6A1
:10436000F894FA9AF99A0FBE01960895F894FFCF3F
:104370000100000000C18081000000FFFFFFFF007E
:10438000E1000000000000810377036D036303591F
:10439000034E03430338032D03220300000000747F
:1043A00013000000007A1FC11FA41FB41F901FA19B
:0243B0001F00EC
:00000001FF
